{
  "contractName": "ValidatorRatings",
  "abi": [
    {
      "inputs": [
        {
          "internalType": "uint256",
          "name": "",
          "type": "uint256"
        }
      ],
      "name": "mlpeers",
      "outputs": [
        {
          "internalType": "string",
          "name": "name",
          "type": "string"
        },
        {
          "internalType": "uint256",
          "name": "m_rating",
          "type": "uint256"
        }
      ],
      "stateMutability": "view",
      "type": "function",
      "constant": true
    },
    {
      "inputs": [
        {
          "internalType": "string",
          "name": "",
          "type": "string"
        }
      ],
      "name": "nameTomrating",
      "outputs": [
        {
          "internalType": "uint256",
          "name": "",
          "type": "uint256"
        }
      ],
      "stateMutability": "view",
      "type": "function",
      "constant": true
    },
    {
      "inputs": [
        {
          "internalType": "string",
          "name": "",
          "type": "string"
        }
      ],
      "name": "nameTosrating",
      "outputs": [
        {
          "internalType": "uint256",
          "name": "",
          "type": "uint256"
        }
      ],
      "stateMutability": "view",
      "type": "function",
      "constant": true
    },
    {
      "inputs": [
        {
          "internalType": "uint256",
          "name": "",
          "type": "uint256"
        }
      ],
      "name": "sitereviewers",
      "outputs": [
        {
          "internalType": "string",
          "name": "name",
          "type": "string"
        },
        {
          "internalType": "uint256",
          "name": "s_rating",
          "type": "uint256"
        }
      ],
      "stateMutability": "view",
      "type": "function",
      "constant": true
    },
    {
      "inputs": [],
      "name": "retrieve_ml",
      "outputs": [
        {
          "components": [
            {
              "internalType": "string",
              "name": "name",
              "type": "string"
            },
            {
              "internalType": "uint256",
              "name": "m_rating",
              "type": "uint256"
            }
          ],
          "internalType": "struct ValidatorRatings.MlPeer[]",
          "name": "",
          "type": "tuple[]"
        }
      ],
      "stateMutability": "view",
      "type": "function",
      "constant": true
    },
    {
      "inputs": [],
      "name": "retrieve_sr",
      "outputs": [
        {
          "components": [
            {
              "internalType": "string",
              "name": "name",
              "type": "string"
            },
            {
              "internalType": "uint256",
              "name": "s_rating",
              "type": "uint256"
            }
          ],
          "internalType": "struct ValidatorRatings.SiteReviewer[]",
          "name": "",
          "type": "tuple[]"
        }
      ],
      "stateMutability": "view",
      "type": "function",
      "constant": true
    },
    {
      "inputs": [
        {
          "internalType": "string",
          "name": "_name",
          "type": "string"
        },
        {
          "internalType": "uint256",
          "name": "_m_rating",
          "type": "uint256"
        }
      ],
      "name": "addmlpeer",
      "outputs": [],
      "stateMutability": "nonpayable",
      "type": "function"
    },
    {
      "inputs": [
        {
          "internalType": "string",
          "name": "_name",
          "type": "string"
        },
        {
          "internalType": "uint256",
          "name": "_s_rating",
          "type": "uint256"
        }
      ],
      "name": "addspreviwers",
      "outputs": [],
      "stateMutability": "nonpayable",
      "type": "function"
    }
  ],
  "bytecode": "0x608060405234801561001057600080fd5b50610e17806100206000396000f3fe608060405234801561001057600080fd5b50600436106100875760003560e01c80635861f2271161005b5780635861f227146101155780637c11ed2f14610145578063cde2d50714610161578063ff91b30f1461019157610087565b806255e8ce1461008c57806314b1f38f146100a85780631b3e05a7146100c657806345909ad4146100f7575b600080fd5b6100a660048036038101906100a191906108df565b6101c2565b005b6100b0610252565b6040516100bd9190610ad1565b60405180910390f35b6100e060048036038101906100db9190610af3565b61034d565b6040516100ee929190610b79565b60405180910390f35b6100ff610409565b60405161010c9190610ca8565b60405180910390f35b61012f600480360381019061012a9190610cca565b610504565b60405161013c9190610d13565b60405180910390f35b61015f600480360381019061015a91906108df565b610532565b005b61017b60048036038101906101769190610cca565b6105c2565b6040516101889190610d13565b60405180910390f35b6101ab60048036038101906101a69190610af3565b6105f0565b6040516101b9929190610b79565b60405180910390f35b60016040518060400160405280848152602001838152509080600181540180825580915050600190039060005260206000209060020201600090919091909150600082015181600001908051906020019061021e9291906106ac565b506020820151816001015550508060038360405161023c9190610d6a565b9081526020016040518091039020819055505050565b60606002805480602002602001604051908101604052809291908181526020016000905b8282101561034457838290600052602060002090600202016040518060400160405290816000820180546102a990610db0565b80601f01602080910402602001604051908101604052809291908181526020018280546102d590610db0565b80156103225780601f106102f757610100808354040283529160200191610322565b820191906000526020600020905b81548152906001019060200180831161030557829003601f168201915b5050505050815260200160018201548152505081526020019060010190610276565b50505050905090565b6001818154811061035d57600080fd5b906000526020600020906002020160009150905080600001805461038090610db0565b80601f01602080910402602001604051908101604052809291908181526020018280546103ac90610db0565b80156103f95780601f106103ce576101008083540402835291602001916103f9565b820191906000526020600020905b8154815290600101906020018083116103dc57829003601f168201915b5050505050908060010154905082565b60606001805480602002602001604051908101604052809291908181526020016000905b828210156104fb578382906000526020600020906002020160405180604001604052908160008201805461046090610db0565b80601f016020809104026020016040519081016040528092919081815260200182805461048c90610db0565b80156104d95780601f106104ae576101008083540402835291602001916104d9565b820191906000526020600020905b8154815290600101906020018083116104bc57829003601f168201915b505050505081526020016001820154815250508152602001906001019061042d565b50505050905090565b6004818051602081018201805184825260208301602085012081835280955050505050506000915090505481565b60026040518060400160405280848152602001838152509080600181540180825580915050600190039060005260206000209060020201600090919091909150600082015181600001908051906020019061058e9291906106ac565b50602082015181600101555050806004836040516105ac9190610d6a565b9081526020016040518091039020819055505050565b6003818051602081018201805184825260208301602085012081835280955050505050506000915090505481565b6002818154811061060057600080fd5b906000526020600020906002020160009150905080600001805461062390610db0565b80601f016020809104026020016040519081016040528092919081815260200182805461064f90610db0565b801561069c5780601f106106715761010080835404028352916020019161069c565b820191906000526020600020905b81548152906001019060200180831161067f57829003601f168201915b5050505050908060010154905082565b8280546106b890610db0565b90600052602060002090601f0160209004810192826106da5760008555610721565b82601f106106f357805160ff1916838001178555610721565b82800160010185558215610721579182015b82811115610720578251825591602001919060010190610705565b5b50905061072e9190610732565b5090565b5b8082111561074b576000816000905550600101610733565b5090565b6000604051905090565b600080fd5b600080fd5b600080fd5b600080fd5b6000601f19601f8301169050919050565b7f4e487b7100000000000000000000000000000000000000000000000000000000600052604160045260246000fd5b6107b68261076d565b810181811067ffffffffffffffff821117156107d5576107d461077e565b5b80604052505050565b60006107e861074f565b90506107f482826107ad565b919050565b600067ffffffffffffffff8211156108145761081361077e565b5b61081d8261076d565b9050602081019050919050565b82818337600083830152505050565b600061084c610847846107f9565b6107de565b90508281526020810184848401111561086857610867610768565b5b61087384828561082a565b509392505050565b600082601f8301126108905761088f610763565b5b81356108a0848260208601610839565b91505092915050565b6000819050919050565b6108bc816108a9565b81146108c757600080fd5b50565b6000813590506108d9816108b3565b92915050565b600080604083850312156108f6576108f5610759565b5b600083013567ffffffffffffffff8111156109145761091361075e565b5b6109208582860161087b565b9250506020610931858286016108ca565b9150509250929050565b600081519050919050565b600082825260208201905092915050565b6000819050602082019050919050565b600081519050919050565b600082825260208201905092915050565b60005b838110156109a1578082015181840152602081019050610986565b838111156109b0576000848401525b50505050565b60006109c182610967565b6109cb8185610972565b93506109db818560208601610983565b6109e48161076d565b840191505092915050565b6109f8816108a9565b82525050565b60006040830160008301518482036000860152610a1b82826109b6565b9150506020830151610a3060208601826109ef565b508091505092915050565b6000610a4783836109fe565b905092915050565b6000602082019050919050565b6000610a678261093b565b610a718185610946565b935083602082028501610a8385610957565b8060005b85811015610abf5784840389528151610aa08582610a3b565b9450610aab83610a4f565b925060208a01995050600181019050610a87565b50829750879550505050505092915050565b60006020820190508181036000830152610aeb8184610a5c565b905092915050565b600060208284031215610b0957610b08610759565b5b6000610b17848285016108ca565b91505092915050565b600082825260208201905092915050565b6000610b3c82610967565b610b468185610b20565b9350610b56818560208601610983565b610b5f8161076d565b840191505092915050565b610b73816108a9565b82525050565b60006040820190508181036000830152610b938185610b31565b9050610ba26020830184610b6a565b9392505050565b600081519050919050565b600082825260208201905092915050565b6000819050602082019050919050565b60006040830160008301518482036000860152610bf282826109b6565b9150506020830151610c0760208601826109ef565b508091505092915050565b6000610c1e8383610bd5565b905092915050565b6000602082019050919050565b6000610c3e82610ba9565b610c488185610bb4565b935083602082028501610c5a85610bc5565b8060005b85811015610c965784840389528151610c778582610c12565b9450610c8283610c26565b925060208a01995050600181019050610c5e565b50829750879550505050505092915050565b60006020820190508181036000830152610cc28184610c33565b905092915050565b600060208284031215610ce057610cdf610759565b5b600082013567ffffffffffffffff811115610cfe57610cfd61075e565b5b610d0a8482850161087b565b91505092915050565b6000602082019050610d286000830184610b6a565b92915050565b600081905092915050565b6000610d4482610967565b610d4e8185610d2e565b9350610d5e818560208601610983565b80840191505092915050565b6000610d768284610d39565b915081905092915050565b7f4e487b7100000000000000000000000000000000000000000000000000000000600052602260045260246000fd5b60006002820490506001821680610dc857607f821691505b602082108103610ddb57610dda610d81565b5b5091905056fea2646970667358221220fd074a9454b82dff98cc512c225bc6aab1b5197a471cc17db2947fa17de7057064736f6c634300080d0033",
  "immutableReferences": {},
  "source": "// SPDX-License-Identifier: MIT\npragma solidity >=0.6.0 <0.9.0;\npragma experimental ABIEncoderV2;\n\ncontract ValidatorRatings {\n\n    uint256 ValidationAccuracy;\n    struct MlPeer {\n        string name;\n        uint256 m_rating;\n    \n    }\n    struct SiteReviewer {\n        string name;\n        uint256 s_rating;\n    \n    }\n\n    MlPeer[] public mlpeers; //array for list of mlpeers\n    SiteReviewer[] public sitereviewers;\n    mapping(string => uint256) public nameTomrating; //used to map name to ml peer rating, so you can get ml peer rating using name\n    mapping(string => uint256) public nameTosrating; //used to map name to site plan reviewer rating, so you can get site plan reviewer rating using name\n\n    function retrieve_ml() public view returns (MlPeer[] memory){\n        return mlpeers; //retrieve tuple of all mlpeers\n    }\n    \n    function retrieve_sr() public view returns (SiteReviewer[] memory){\n        return sitereviewers; //retrieve tuple of all sitereviewers\n    }\n\n    function addmlpeer(string memory _name, uint256  _m_rating) public {\n        mlpeers.push(MlPeer(_name, _m_rating)); //append to  MlPeer[] array\n        nameTomrating[_name] = _m_rating; //use name to get ml peer rating\n    }\n    function addspreviwers(string memory _name, uint256 _s_rating) public {\n        sitereviewers.push(SiteReviewer(_name, _s_rating)); //append to  SiteReviewer[] array\n        nameTosrating[_name] = _s_rating; //use name to get site plan reviewer rating\n    }\n    \n}",
  "sourcePath": "/Users/revanthgottuparthy/dApp03/contracts/Validator_Ratings.sol",
  "compiler": {
    "name": "solc",
    "version": "0.8.13+commit.abaa5c0e.Emscripten.clang"
  },
  "schemaVersion": "3.4.13",
  "updatedAt": "2023-04-29T17:07:50.624Z",
  "networkType": "ethereum",
  "devdoc": {
    "kind": "dev",
    "methods": {},
    "version": 1
  },
  "userdoc": {
    "kind": "user",
    "methods": {},
    "version": 1
  }
}